:020000040000FA
:100000000040002081780100BD780100BF78010028
:1000100000000000000000000000000000000000E0
:10002000000000000000000000000000C178010096
:100030000000000000000000C3780100C578010046
:10004000C7780100615A010031700100C7780100D2
:10005000C778010000000000C7780100C7780100E0
:10006000AD4C0000C56D0100C7780100C7780100E4
:10007000C7780100C7780100C7780100C778010080
:10008000C7780100C7780100C7780100C778010070
:10009000C7780100C7780100C7780100E94D00006A
:1000A000F94D0000C77801000000000000000000CA
:1000B0000000000000000000000000000000000040
:1000C00010B5064C2378002B07D1054B002B02D02E
:1000D000044800E000BF0123237010BD1801002078
:1000E0000000000048460300044B10B5002B03D06D
:1000F0000349044800E000BF10BDC04600000000F6
:100100001C01002048460300164B002B00D1144B65
:100110009D46402292029A1A924600218B460F4633
:100120001348144A121A25F0BDF80F4B002B00D0CB
:1001300098470E4B002B00D0984700200021040068
:100140000D000D48002802D00C4800E000BF1DF053
:10015000E9F82000290024F0A2FD1DF02FF8C04688
:100160000000080000400020000000000000000027
:1001700010010020482E00200000000000000000B8
:100180000023F0B52F4E93B0050006A8140033608D
:100190000191012703F030FE2740031E35D1E2060E
:1001A0002DD56A68A96811201FF03BFF05002E6855
:1001B00029000125019A03A80FF08CFFA3082B400A
:1001C0000022310003A80DF0FFFF0400032003F01C
:1001D00059FE200020F0C8FB0120404203F052FEEF
:1001E0002C0003F027FE002F24D02900164804F02D
:1001F00035FC3C000121144804F030FC1AE0A30651
:10020000D5D5280020F05AFDD0E70120404203F068
:1002100039FE002F03D001210B4804F01FFC079882
:100220000CF004F8094906F009FD041E05D03468F5
:10023000002FDFD1200013B0F0BD079904480CF067
:1002400031F8F5E734010020A6BD0200DC8702008A
:10025000885E020010B586B0202102A8802423F019
:100260006CFE64001E481EF0ACFB00231D48039387
:100270001EF0A7FB04F0DAFB0128F3D002280BD113
:1002800019481EF09EFB02A823F079FE01220020EF
:10029000164B1A7006B010BD032802D10023039339
:1002A000E8E7042804D0C1B202A823F0A6FEE1E7E3
:1002B0000F481EF086FB039B0193002B08D10A48D0
:1002C0001EF07FFB02A823F05AFE80204000E1E7E9
:1002D0001122012102A8FFF753FF2042C5D0D9E720
:1002E0005DBE02005501030033DB0200D400002094
:1002F00078BE020030B587B0202102A8802523F007
:100300001CFE6D0037481EF05CFB37481EF059FBA1
:100310000024364902A8039423F09FFD01280AD146
:1003200033481EF04EFB02A823F029FE2000314B7B
:100330001C7007B030BD022803D12D481EF041FBD0
:10034000E0E7032801D12A48E0E7042808D128483B
:100350001EF037FB02A823F012FE80204000E8E7E1
:10036000052827D124481EF02CFB039404F05EFBE3
:100370006B46C1B2DC1D21700329E4D004290AD1E7
:100380001B481EF01EFB0121162202A8FFF7F8FEF3
:100390002842BDD0CDE702A823F02FFE23780D2BF5
:1003A00003D116481EF00DFBE0E70121200004F008
:1003B00055FBDBE7039B002BAAD002A823F00BFE22
:1003C00007F00EF900280BD00A2102A823F015FE31
:1003D0000B4902A823F041FD0328B4D00428ECD136
:1003E0000021D1E7A8BD0200F6BD02001CBE02003C
:1003F00033DB0200D400002021BE020051BE020007
:1004000058BE02000023820708D10068044A013365
:10041000904203D0034BC01A434243411800704737
:10042000A054020064540200044B88600B60044B2B
:1004300008004B600023CB607047C046B0720200DA
:100440005DE0010030B585B005000800694609F09F
:1004500055FA0400200009F0B3FA011E02D1064843
:1004600005B030BD2B1D0022180023F047FB0028EB
:10047000F0D00248F4E7C0467C9B0200749B020067
:1004800070B50500102023F0CCFA0400074B696812
:1004900008C023F029FBAB68E968A3606B68E068DB
:1004A0009A0024F0E3FE200070BDC046A054020074
:1004B000F7B504000D0000268B0704D10B68214E10
:1004C0009E1B73425E41AB68002B0AD1002E03D005
:1004D0001D4920001EF0DCF81C4920001EF0D8F851
:1004E000F7BD002E03D01A4920001EF0D1F819499B
:1004F00020001EF0CDF8002701236A68BA4207D811
:10050000154920001EF0C4F8002EE9D01349E4E795
:10051000BA000192EA68B9005258002A0FD0042AA2
:100520000DD0002B03D10E4920001EF0B1F8EB686E
:10053000B9005958012220000BF090FE002301372A
:10054000DBE7C04664540200B3BE0200BABE02003C
:10055000C0BE0200CBBE0200C21703001819030080
:10056000CDBE020010B5830707D1044B02689A4242
:1005700003D10349034820F042FA10BD645402003D
:100580007BBE02006883020070B50D000400FFF717
:10059000E9FF2900201D012223F0B0FA004870BDB8
:1005A0003CB0020070B50D000400FFF7DBFF29002E
:1005B000201D022223F0A2FA004870BD3CB00200C8
:1005C00070B5060008680D000124FFF7CBFFB442A8
:1005D00001D3044870BDA300E95828681DF0DCFC75
:1005E0000134F4E73CB0020070B50D000400FFF7E1
:1005F000B9FF2800002109F081F90500280009F061
:10060000DFF9011E01D1044870BD231D032218002B
:1006100023F074FAF2E7C0463CB0020010B50400C3
:10062000FFF7A0FF201D23F0F7FA014810BDC046D8
:100630003CB0020010B501221DF0DFFC004810BDE7
:100640003CB0020070B504000D00FFF78BFF201DC9
:100650000222290023F052FA002804D1034821F095
:100660002DFE03F0EFFB024870BDC0464885020036
:100670003CB0020010B50400FFF774FF201D23F00A
:10068000ACFA002803D10249024820F0B8F910BDA5
:100690009DBE020048850200F8B50D0001280BD070
:1006A000002803D002280BD0002004E08B681448F7
:1006B000002B00D11348F8BD8B685B001843FAE7A4
:1006C000032400200C408442F5D10F4B0E6820001B
:1006D0009E42F0D14F68A74203D1012076003043FB
:1006E000E9E7EA68A3009958002906D0042904D054
:1006F000022008F09BFF401036180134EBE7C0469B
:100700007C9B0200749B020064540200F8B5040054
:1007100010200D0023F085F90600094B210008C6C2
:100720000700300023F0E0F9A4002C19A54201D104
:100730003800F8BD012202CD300023F0DFF9F5E7E3
:10074000A0540200F7B504000E00171E2CD0FFF7CE
:1007500009FF194DB4422DD000210800FFF7D6FF44
:1007600000210500300009F0C9F80190019809F056
:1007700027F9061E0CD1002F1CD0E06823F080F969
:100780006B686360AB68A360EB680B4DE36011E0DE
:10079000201D0022310023F0B1F90028E6D03100FD
:1007A0002800FFF7F1FEE1E78842D5D120001DF0D7
:1007B00006FC05002800FEBD3CB00200F0B589B083
:1007C00004000390029101920027FFF71BFEB8423C
:1007D00007D13A0003AB012122481DF064FC04005C
:1007E0000137029D00262800FFF70CFEB04207D11A
:1007F000320002AB01211B481DF055FC05000136FB
:10080000019B002B05D00023AA680193A3689342A3
:100810000DD0154B06940493144B059300230793B6
:1008200004A81DF01BFC011E12D101230193002F0F
:1008300002D02000FFF7F2FE002E02D02800FFF7C2
:10084000EDFE019B0A48002B00D10A4809B0F0BD1B
:100850002B1D0022180023F051F90028E0D101904F
:10086000E5E7C046A0540200B07202005DE001005E
:100870007C9B0200749B020073B50C001500009174
:10088000019200268B0704D10B68394E9E1B7342E0
:100890005E4132001F2868D817F086F828101767C5
:1008A00067671C676767676767212D346767673B02
:1008B000676767676740464A5358675D29002000AD
:1008C0001DF08EFB0400200076BD290020001DF0E5
:1008D000DFFBF7E7694602201DF0BBFBF2E7002EC5
:1008E00004D069460220FFF76BFEECE729002000E8
:1008F0001DF06CFBE6E729002000002EE0D0FFF79A
:1009000073FEE0E729002000FFF71CFF002EDAD17C
:10091000D8E7694602201DF070FBD3E701222900C9
:100920002000FFF74BFFCDE7012221002800F8E768
:100930002800FFF767FD002815D0A368AA68934236
:1009400011D1290020001DF0DFFBBBE729002000AA
:100950001DF0D2FBB6E7201D0022290023F0CEF8BF
:10096000044C0028AFD1044CADE70024ABE7C046EF
:10097000A05402007C9B0200749B020070B504002E
:1009800008000BF03BFD0500431002D00F4809F0B2
:10099000E3FB0F49200004F01BFD002807D0A02234
:1009A00003216379D205C133FF339B0099500123A2
:1009B00062799340A022D205002D04D0A121C90064
:1009C0000448535070BD0449FAE7C0461DBF0200F9
:1009D000A86402003CB002000C05000070B50500E0
:1009E00008000BF00BFD0B2303410400DB0702D4CE
:1009F000094809F0B1FB2800084904F0E9FCFF228E
:100A0000A40092001440A0226B79D205C133FF33B9
:100A10009B0003489C5070BDEFBE0200A064020022
:100A20003CB0020010B50C49040004F0D1FCA02237
:100A3000D205002805D004216379C133FF339B0020
:100A4000D150A223DB00D0586379D840012318404D
:100A500021F0CBFB10BDC046A064020010B504001D
:100A600004F082FC084B984202D0200004F08AFC7B
:100A7000A0226379D205C133FF339B009858000749
:100A8000800F21F0B2FB10BDA0640200032370B5FB
:100A90000B4004000800022B14D1194B0B40062B0D
:100AA00010D00BF00FFD19F039F90022154B18F09A
:100AB0009FF919F0C3F8144B0500984205D9134863
:100AC00009F04AFB0BF09AFCF5E71149200004F00D
:100AD0007FFC002807D0A02203216379D205C1330F
:100AE000FF339B0099506079290007F0A3FD002D8A
:100AF00003D10849200004F06BFC074870BDC046D4
:100B0000070080FF0000E03FFF030000FCBE020082
:100B1000E8640200986402003CB0020013B50A4980
:100B2000040004F055FC05216846615616F064FE89
:100B3000684616F087FEA0230021044ADB00D1504E
:100B400021F053FB16BDC0469864020000700040BF
:100B500010B508000BF052FCFA239B00584307F035
:100B600045FD002802D0024809F0F6FA014810BD00
:100B7000E0BE02003CB0020010B508000BF03EFCE5
:100B800007F034FD002802D0024809F0E5FA0248D7
:100B900010BDC046E0BE02003CB0020010B504002B
:100BA00004F0E2FB0C4988420DD00C4B98420AD06D
:100BB000200004F00DFCA0220C216379D205C13382
:100BC000FF339B009950200013F050F8044B00288D
:100BD00000D0044B180010BDD0640200B8640200BD
:100BE0007C9B0200749B0200A0230C220249DB05BF
:100BF0005A5004395A5070474407000010B5040099
:100C00000BF014FB064B984208D0064B984205D0D7
:100C1000054B984202D0054809F062FC200010BD47
:100C2000D058020088570200C4570200D0BE02000C
:100C3000F0B58FB0069242680993944603680400A9
:100C400002939B6804300093634403600E001DF020
:100C500073FA059060681DF085FA431C63600378A1
:100C6000A24A0193831C6360437800210093C31C54
:100C700063608378B5000393031D6360C37820002D
:100C8000049323001033A360059B14309A1893003B
:100C90000793C318E360079B0C331A00089324F0F2
:100CA00001FB099B009A5B190B93059B9B1A039A06
:100CB0000A939D1A2F1D009ABF00E7190123B24223
:100CC00064D2019A1A4207D13300009A88498948B0
:100CD0000EF0FCFE03F0B6F8009B03359900099B6B
:100CE000AD005918009B6519F01A07F0B9FA009E7B
:100CF000043F68600022964200D070E0069B002B03
:100D000003D1019B1B0700D4D6E002230026019AE1
:100D10001A400992B24204D006981FF027FD06003F
:100D200038600027029B0B9DDB680893069B9F425F
:100D30005ED10A9B029805339B00E1180A00049DCE
:100D40000C30002D00D080E0049A92008918079A98
:100D50002032A2188A4200D980E0143B0693009BFF
:100D6000089A9B00D3180793039B9D4200D27FE013
:100D700065680DA80D951DF0DFF928180578461C4B
:100D8000FF2D00D0A7E066600FB0F0BD019A1A42B7
:100D900005D00335AD00584B6519043F6B60069BC9
:100DA000002BA7D1019B1B07A4D4009B049A9A1A7D
:100DB000B24212D8009A049B991A32008900009B13
:100DC0009A4297D29300029D58182818089D0069EE
:100DD000EB1AE31818610132F1E7330076E709995D
:100DE00008989300C958C31AE3181961013282E7C1
:100DF000009B039800221B189C462968944505D83F
:100E0000099B002B1CD1CA083C490EE0089B9000AE
:100E10001858884212D1059B013B9B1A9B00E3188E
:100E20005A69002A05D0CA08354932480EF04EFEEC
:100E300050E76A685A610137083577E70132DDE724
:100E40006A6830001FF0CBFCF5E71668002E02D16F
:100E5000AE0086591660013D043272E7081D09682C
:100E6000002903D1121A92102649DEE7010071E72A
:100E7000069AAB00D71AE7193A69002A16D108205A
:100E800000996E180899B6008E190799C958019BE8
:100E900003420DD0049B029804339B001858043081
:100EA00011F0F0F9002803D043683B6101355BE79E
:100EB00032681549D208B8E7039B002B02D01348CB
:100EC00009F00EFB019B9B0700D451E703981FF02C
:100ED0004DFC38604CE7ED43059BED18AD006519FE
:100EE000686908F0D7FA6861300047E7FDFFFF3F07
:100EF00032BF020018880200507302009ABF02003D
:100F00006BBF0200BBBF0200EDBF02001DC00200AC
:100F100010B523F0E5FA014810BDC0463CB0020010
:100F200010B5C30708D483070ED10368094A93425A
:100F300002D0094A934207D10BF060FA002801DD84
:100F40001DF04CFD054810BD0BF0BCFA17F0A6FED5
:100F5000F4E7C046D49D0200849B02003CB002002E
:100F600001220B4B10B51A600A4A51680029FCD0C7
:100F700000215160A1220131D2009A585960032307
:100F8000D01718408018801021F02FF910BDC046EE
:100F900000C00040FCC0004010B5002804D1044847
:100FA00014F07CFF034810BD08680BF027FAF7E740
:100FB000E70300003CB0020010B5040023F00BF87A
:100FC00021F0ABF901280BD00649200023F01EF8D0
:100FD000200023F000F821F0A0F9022800D0002022
:100FE00010BDC04680C00200F0B59DB000AF0C68D7
:100FF000032835D9CB68FB60042835D00D69002063
:101000006D102BD41C232000F91801F0CDFC786161
:10101000002D5AD0954C9649606807F0C1FD060036
:10102000606800229349043011F02CF91823FA1853
:10103000D1180400300001F0B7FC3B6B013D01000A
:10104000C318002C05D1994203D2013B1A782E2AED
:10105000F9D1013D0ED299420FD1874809F07CF8B1
:10106000864B0025FB60CDE70025CBE7013B1A78D6
:101070002E2AEED09942F9D3EBE7FE695C1A2500DF
:10108000002E01D0751C2D192B006A460E33DB088B
:10109000DB00D31A9D46220018003B6124F0E6F8DD
:1010A000002E08D02E233A69601C13551018796958
:1010B000320024F0DBF82900386912F06DFE0624B6
:1010C0003B69C0000443FD617B61200001F036F8FC
:1010D00011F0FEFA061E15D02E21786924F0F0F8E2
:1010E00000280BD0654BFA689A4207D17B69C11A78
:1010F000180012F051FE11F0EBFA06003000BD4668
:101100001DB0F0BD182318000125FA18D2183818A0
:10111000103B4021C01822F029FFBE603E61FB69F0
:10112000AB4205D2554BFA689A42E7D0BE68E5E774
:10113000AB4204D07B695B5D2E2B00D094E029008C
:10114000786912F029FE7B6A3860002B17D12A00DB
:10115000082479691833F818001922F0D2FE1823F0
:10116000FB181819FFF728FF78607B68002B14D153
:101170003A68434943480EF0A9FC02F063FE182385
:101180000824FA182F21101912F056FC3B6939690E
:10119000EA1A7B6959181823DDE7386811F098FAC4
:1011A000041E4BD1386811F061FAFB690400AB42B0
:1011B00013D1354BFA689A420FD17B68012B0FD0BF
:1011C000324A2B4940681FF00AFB18220823BA183C
:1011D000D11820001CF0D3FF30E07B68012BF4D144
:1011E0000022796AB86A00F087FFF8210200FF3117
:1011F000200008F05FFB7B6A18227B600823B81888
:10120000C0182F2112F018FC18220823B818C01893
:101210001F4922F0FBFE18220823BA18D01822F02A
:10122000DAFE21F07AF8022806D118220823BA182B
:10123000D11820001CF0A3FF7B687B62BB68002BE9
:101240000CD07A693B699446E91A6344180012F09D
:10125000A3FD22000100B86808F02CFB002E00D18D
:1012600026006B1C3B61BC60013558E7E82C002070
:10127000A60F0000BE0F000044C002003CB00200F8
:1012800063C0020094840200749B0200960F000069
:1012900078C00200F7B545681600A8681F000191E4
:1012A0001CF05AFF0400A8681CF05CFF1CF054FFFF
:1012B00003000320584307340019800022F0B1FBDB
:1012C000074B040003606B683200436000238560B5
:1012D000C36001993B000830FFF7AAFC2000FEBD67
:1012E000C05A020070B5050088680C0021F0FDFBB3
:1012F00023000200024928001DF08BFA70BDC04691
:10130000A4C0020010B5024820F0D8FF02F09AFDF8
:101310006487020010B50400082022F082FB024B13
:101320004460036010BDC046FC5A0200F7B5C568B2
:1013300004001E00002D02D11D602800FEBD0369BF
:101340001830834205D1184B994203D0174809F051
:10135000C7F819602000164F11007B680830019310
:1013600063687B600DF080FC019B05007B600128B9
:1013700007D002280CD00023E36023691B68336088
:10138000DBE723691B683360002BD6D1E360D4E729
:10139000A36898681CF0E0FE002305308000E3603D
:1013A00024186368EBE7C0463CB00200C2C00200EC
:1013B000E82C002013B501ABFFF7B8FF01280ED0D1
:1013C000104C02280DD0019BA34219D0002B17D03E
:1013D00001AA01210C4820F06BFF02F033FD0198B7
:1013E00016BD01980AF022FF074905F027FC0028E6
:1013F00001D10198F1E701980EF034FBA042F8D139
:101400000020EDE73CB002006487020010B50B003D
:10141000022808D14A6805491868FFF7CBFF002861
:1014200003D1FFF76FFF8A68F5E710BD3CB00200FB
:1014300010B500220149FFF7BDFF10BD3CB002000E
:1014400013B5114C01AB114A2100FFF76FFF0128C2
:1014500003D0022805D0200016BD0D490D481FF00D
:10146000CEFA01980AF0E2FE0B4905F0E7FB0028EE
:10147000F1D101980AF0DAFE084905F0DFFB0028F7
:10148000E9D1019802F0DEFC3CB00200D0820200FB
:1014900084C002002887020058840200648702008A
:1014A000F0B505008BB008680C0001F067FA0490F5
:1014B00004A81CF08AFE00260127049B03900693D3
:1014C000069B197800291AD1300006F0C9FE0122C6
:1014D000070007A960680BF04BF9079B089A059372
:1014E0009B180193022D1FD9A0680AF087FF0028DE
:1014F00017DA089BC01814D5284808F02DFE0800FC
:1015000007F088FF002806D006A81CF070FE069B96
:101510001B78732B00D13800069B361801330693D5
:10152000CEE7059B181805900025B54202D3380078
:101530000BB0F0BD049B0124187807F06BFF002866
:1015400003D004A81CF053FE04000598019A031967
:101550009A42D1D3049B1B78732B10D02D19AB006A
:101560000293049B013C14D3197805AA03980FF049
:1015700095F8029AA300D31AFB185860F1E72100EE
:1015800000F0D2FD059B1C19AB1C9B000594013596
:10159000D851049B01330493C7E7C046F8C002004A
:1015A000F0B589B0039101921E0001F0E7F90490B3
:1015B00004A81CF00AFE00250290B54201D309B030
:1015C000F0BD049B18780028F9D007F023FF012410
:1015D000002803D004A81CF00AFE0400039B019A13
:1015E0001B199A4202D21B4808F0B6FD049B1B78D7
:1015F000732B10D02D190E9BAF00DF19049B002C0C
:1016000024D0A20052421978BA5803AB02980FF0C6
:10161000A5F8013CF2E70E9B6F1CAD00E8580122D3
:1016200005A90BF0A5F8069DA54200D925002A00C2
:101630000599039823F01AFE039B621B58193D007D
:10164000002123F02FFE039B1C190394049B0133FC
:101650000493B2E7F8C00200F0B50E0089B0039021
:1016600001CE0F001CF0D9FD4410210004A822F087
:1016700075FC069D22000021280023F013FE039B29
:101680000096013B2A1929003868FFF789FF04A951
:10169000024800F0FBFC09B0F0BDC046BC5B020094
:1016A00030B50C0089B005000222606805A90BF076
:1016B0005FF8A0680AF0A2FE002806DA069B0393F2
:1016C000C01802D5084808F047FD0599069AEB1E98
:1016D0008A18091820000C3000902068FFF760FF7E
:1016E000024809B030BDC046F8C002003CB002005C
:1016F000F0B585B005001600080003AB02AA01A9E9
:101700001DF092F80398364FB84209D0032807D04D
:101710000AF074FEB060002804D1324808F01CFDC5
:101720000123B3600198B84229D10024B368A342D1
:1017300000DC6C1E0298B84225D1B368002B47DD4F
:101740002800002C2ADA641901D5B368DC170028B8
:1017500034DA401901D501204042B368002B00DA89
:101760000130B368002B2DDDA04200DA2000013BE0
:10177000706058425841C0B2346005B0F0BD0AF004
:101780003DFE0400D6E70AF039FEB368002801DB0D
:10179000DA0F8018002CD6DB002B03DDAC42D6D943
:1017A0002C00D4E7002BD2D0A54200D86C1E002814
:1017B00004DA4019D4D501204042D1E7A842D0D95B
:1017C0002800CEE7002BD2D0A042D0DD601CCEE7AF
:1017D000002C01DA0020B6E700208342E4D1C0E704
:1017E0003CB0020009C10200F0B5060085B0170048
:1017F0001B2805D10A9A974209D0002005B0F0BDF8
:1018000019281AD01C281AD00A9A0A9717001A0009
:101810000B0011000A9A0192BA4200D901971D00EB
:101820000C0000230093009B019A934209D10A9B6C
:10183000BB4220D0E1D30120E0E71A26EAE71D26CB
:10184000E8E70295039401CD02CC0AF085FD00285B
:1018500002D0009B0133E5E71B2ECED0039B300066
:101860001A68029B196808F07FFC044BC01A4342B7
:101870005841C0B2C2E71A2EDDD1BEE77C9B020000
:10188000F0B51E0085B0039018680D0017000AF02F
:10189000CDFC7368019002930024022F0ED901231E
:1018A000B26829000AF082FE0400032F06D0290046
:1018B0000123F26801980AF079FE0500A54202D8DA
:1018C000084808F049FC039AA3000299D0580AF08E
:1018D00043FD002801D10134F0E7012064002043DA
:1018E00005B0F0BD23C102000139C9B2054B401853
:1018F00080301970044A03781370044AD25C044B98
:101900001A707047632C0020642C0020F9D202006A
:10191000622C00200131C9B2054B4018803019708B
:10192000044A03781370044AD25C044B1A7070475F
:10193000632C0020642C0020F9D20200622C0020CD
:10194000074B984206D9074B1818074B4118C9187E
:1019500008787047054B18184118054BF7E7C04643
:10196000A49200003AD102005B6DFFFF4EC102005D
:101970000083FFFF03002022F0B57F254F265F275D
:10198000803304001A7089B003007F3019780A0090
:101990002A406F2A26D90A003A40190001338131C2
:1019A0000A709842F2D17F22B64B1A702300643A33
:1019B000FF331A70E4320292531CB348DBB2049333
:1019C0000370E31880331B78B0490B705B2B0ED18A
:1019D0009B22029B0A700133DBB20370E2540120A8
:1019E00009B0F0BD5F2AD8D90A003240D5E72E2BC6
:1019F00013D10232D2B20270A21880321278A148FA
:101A00000270A348825C0120024206D1029A0B7048
:101A10001218D2B20292A354CEE10220994A137056
:101A20009B4AD25C104000D0A1E0002A15D1964814
:101A3000203203780A70E31880331A70029B013356
:101A4000DBB202930370782B01D8E254B4E19B23FC
:101A5000029AA354049B0B70C1E716007F2552B273
:101A6000AE430E70002A03DB8A4B8B4A1A60B7E73D
:101A7000413B8A4ADBB28A49D25CCB5C12021343F7
:101A80000393039B002101339BB218000393FFF7DC
:101A900057FF0306F5D5012300260127794D2B704A
:101AA00039000398FFF74CFF7B1CDBB20193282819
:101AB0005FD1002E00D02F702D780135EDB22900B6
:101AC0000398FFF73DFF6B1CDBB2292854D17F261A
:101AD000069306990398FFF733FF069B30400133C6
:101AE000DBB23D284AD10026684B049A1870664B39
:101AF0001A70644B019A1A70049B0593059B019917
:101B0000E31880331B7803980793FFF719FF079BAF
:101B10009842B6D1019B0133DBB20193AB422FD186
:101B2000002E02D0584B059A1A70049D013FFFB257
:101B3000544B390003981F70FFF702FF534E030602
:101B400000D509E1504B7F211870514B1B5C1A00E6
:101B50005BB28A433270002B18DA4B4B013DEDB279
:101B60001D70631980331B789842DFD089E74D4B95
:101B700086E70126019F93E71D00A0E70693A8E7EB
:101B8000059B01260133DBB20593B7E730702028AF
:101B90001BD0232825D02E282CD0262832D0402810
:101BA0004ED05E2856D02B285CD03A2800D02EE1AB
:101BB000202629002000FFF797FE344A137833408F
:101BC0001370B3D0304B1D78F3E729002000FFF7E6
:101BD0008BFE0023F356002B00DA52E72A4B1D78C8
:101BE000A4E729002000FFF77FFE4022337813424C
:101BF000F4D146E729002000FFF776FE33781B0773
:101C0000ECD43EE729002000FFF76EFE1022337867
:101C100013403370E2D11C4B1B78E11880310978F6
:101C20003170482900D02CE7013B1749DBB20B701B
:101C3000E31880331B789343432B00D021E7CDE793
:101C400029002000FFF750FE042233781340337040
:101C5000C4D116E729002000FFF746FE33789B0623
:101C6000BCD40EE7084B013DEDB21D7065198035FF
:101C70002B78452BB2D010229343492B00D000E79C
:101C8000ACE7C046642C0020632C0020622C0020AE
:101C9000F9D20200180000203AC102007FD30200EE
:101CA00065D30200A59200006B1C924ADBB2137050
:101CB000E31880331B7890490B70452B36D1A81C54
:101CC000C0B2231880331B788C4E33708C4EF6567E
:101CD000002E02DB874B1D783FE010700B70522BFB
:101CE000F8D0532BF6D0442BF4D04C2B08D103352D
:101CF000EDB21570651980352B78592BEAD0C0E606
:101D0000462B00D0BDE6EB1CDBB21370E31880332A
:101D10001B780B70552B00D0B3E60435EDB215706F
:101D2000651980352B784C2BD4D0AAE6492B00D0EE
:101D3000A7E6AB1CDBB21370E31880331B780B7083
:101D40004E2B00D09DE60335EDB215706519803538
:101D50002B78472BBED094E6059D019B0398013359
:101D6000DBB20193019A654B11001A70FFF7E8FD91
:101D7000019B069A5F4F934220D100257F272E00BA
:101D800001990398FFF7DCFD03003B403D2B04D095
:101D9000029A0132D2B20292A354019A0132D2B213
:101DA000010600D4A2E0002E02D0544A019911701D
:101DB000514A1370059B0493049AFDE5504B7F2113
:101DC0001B5C4D4E1A005BB28A4338703270002B98
:101DD00008DA0135EDB2631980331B783D70834218
:101DE000BBD04EE63070202816D023281ED02E28D7
:101DF00026D026282DD0402848D05E2851D02B2828
:101E000058D020263A2864D0252800D14CE73D4BF5
:101E10003D4A00201A60E3E529002000FFF77AFD23
:101E20000023F356002B00DB54E72AE629002000AC
:101E3000FFF770FD40223378134200D04AE720E6D6
:101E400029002000FFF766FD33781B0700D541E726
:101E500017E629002000FFF75DFD102233781340BC
:101E6000337000D036E73B78E11880310978317063
:101E7000482900D005E60133DBB23B70E31880331C
:101E80001B789343432B00D0FBE523E72900200078
:101E9000FFF740FD042233781340337000D019E778
:101EA000EFE529002000FFF735FD33789B0600D5CC
:101EB00010E7E6E50135EDB23D70651980352B7808
:101EC000452B00D106E710229343492B00D0D8E5DB
:101ED00000E729002000FFF71DFD074A1378334073
:101EE000137000D139E7034B1D78F2E70192012608
:101EF00046E7C046632C0020622C0020642C0020A2
:101F0000F9D202001800002044C10200032230B5BB
:101F100002400121002A04D1084C05680B00A542AB
:101F200009D00B00034006D1002A04D103680448FD
:101F30001B1A58424341180030BDC046849B020022
:101F4000D49D020010B50400FFF7E0FF0122002835
:101F50000AD1032302002340022B05D10348044089
:101F6000063C2200541EA241100010BD070080FF55
:101F7000044B88600B60044B08004B600023CB606F
:101F80007047C046B072020039E6010010B50AF091
:101F90004DF9084B42680848D31859424B41B721C4
:101FA0005B428B4305495B1805490DF08FFD01F03D
:101FB00049FFC04631FDFFFF18880200CF02000034
:101FC00099D30200F7B504000E00019301208B188D
:101FD0000A0000210093009B934212D82725002974
:101FE00000D0053D224F2A00390020001CF011FCD2
:101FF000009B9E4214D32A00390020001CF009FCEB
:10200000F7BD1378272B08D0223B5D426B41DBB232
:102010000132002BDFD02725E4E700230100F7E79A
:102020003278AA4205D12A00124920001CF0F1FBA7
:102030001AE011495C2A14D01F2A09D97F2A15D029
:10204000019B002B02D053B2002B07DB3900ECE7D9
:102050000A490A2A05D00A490D2A02D0092A05D1BF
:10206000084920001CF014FB0136C1E70649DCE7F3
:10207000D3D70200D2D70200D6D70200D9D70200A8
:10208000DCD70200DFD70200E2D70200194B70B59F
:1020900006000C0098420FD14968A06811F04AFE72
:1020A000051E09D0200021F06AFF0023ED00236007
:1020B00006331D43280070BD102021F0B2FC61687A
:1020C000050081600660A06811F016FE6368686014
:1020D000591C2368994208D1A368EB600023EA6881
:1020E000A9685354A3602360E4E7A06821F0B7FC1B
:1020F000E860F3E79463020070B504000D00002A65
:1021000005D011F049FEC3000620184370BD11F040
:1021100011FE0028F7D12A00210002481CF064F9C2
:10212000F4E7C0469463020010B50A0001000248BB
:102130001CF05AF910BDC046BC5B0200094B10B53B
:102140000340062B01D1C00810BD830708D1064B00
:1021500002689A4204D18168C06811F01DFEF3E75D
:10216000FFF714FF070080FF94630200064B10B5D1
:102170000340062B03D1C00821F0E0FF10BD8368A7
:10218000C0680B60FAE7C046070080FFF0B50F009B
:10219000002589B0110006001C00380000950323BB
:1021A0002A0002F04DFE0E20AF420FD0012F0FD1BA
:1021B00002AA102104A811F033FC216802A82A0009
:1021C0000AF04CF804A93000FFF760FF09B0F0BD39
:1021D0002068830722D1164B02689A421ED104A9B7
:1021E000FFF7C4FF134B050020680340062B13D1F3
:1021F000C00821F094FF0400002C04D104992800A9
:1022000011F07AFD04001020049F21F00AFC066002
:102210008760C5604460D9E74468EDE704A90122FE
:102220000AF0A6FA002205990498FFF765FFCDE7AA
:10223000BC5B0200070080FFF0B58DB00400039185
:1022400009F0F4FF04A906002000FFF78FFF039BAD
:1022500001902F489A0705D11B6883420AD02D4A66
:10226000934207D0C36800220293012103AB029C72
:10227000A0470390002406AA05A903980AF060F974
:102280002500059BA3420ED82900002508A821F0AF
:1022900065FE0A9C059BAB4221D808A93000FFF7D8
:1022A000F5FE0DB0F0BD069BA700D85909F0BEFFA2
:1022B000B04202D0184808F013F9002C01D0049B5A
:1022C000ED18069BD859154B0340062B05D1C008C5
:1022D00021F02AFF2D180134D3E78068FAE7002D9A
:1022E00006D02000049A019922F0C0FF049BE41854
:1022F000069AAB00985807A9FFF738FF079A010024
:10230000200022F0B3FF079B0135E418C2E7C04666
:102310000CAC0200587302000FD80200070080FFC7
:10232000F0B58BB0049008680D000692079309F091
:102330007DFF0400686809F079FF0600A04202D022
:102340006868FFF723FE08A92868FFF70FFF04005D
:1023500009A96868FFF70AFF089A0590A318039374
:10236000049B2700022B19D9AB681D498B4206D06C
:10237000012130000091210002F0A2FE0700049B21
:10238000032B0BD0EB68164A934207D001222100A1
:1023900000923000089A02F093FE0390039B059A86
:1023A000D91B069B38000093099B1BF0FEFF0028F9
:1023B00006D1079B0138002B0CD00A4807F0CCFE51
:1023C000094B9E4208D1010020001EF091FA440002
:1023D000012020430BB0F0BD041B6400F8E7C046A9
:1023E0003CB00200FBD7020094630200F0B5070086
:1023F00087B008680D0009F019FF04A906002868D5
:10240000FFF7B4FE05A904006868FFF7AFFE03906C
:102410002000022F07D901230093AB68049A210002
:10242000300002F04DFE059A041B049BA418064DD3
:102430009C4205D8039922F00AFF002800D1034DE1
:10244000280007B0F0BDC046749B02007C9B0200D0
:1024500073B50D00060069462868FFF787FE01A9DD
:1024600004006868FFF782FE0100022E02D90848C6
:1024700008F064F8019A0098064D824206D8801A46
:10248000201822F0E4FE002800D1034D280076BD7C
:10249000E9D70200749B02007C9B0200F0B58FB06C
:1024A000079010680C00160009F0C0FE0690012C81
:1024B00031D0706809F0BAFE069B984202D070686D
:1024C000FFF764FD0DA97068FFF750FE0D9B0890A3
:1024D00009930DA93068FFF749FE0D9B0B900493FB
:1024E000079B012B1CD1049B5D1E01235B420A93B9
:1024F00000242700049B03940593059B002B13D114
:10250000039B002B23D1214B069A0E209A4200D028
:102510001F480FB0F0BD072309931E4B0893D8E75F
:10252000012300250A93E3E70B9B09995A1901231C
:10253000089800931BF039FF002816D1039B002B4D
:1025400019D1079B002B09D12F00049B5C1E049B13
:102550000134E21B934212D13068DAE7079B2C006A
:10256000012B0AD001232F0003930A9BED18059B32
:10257000013B0593C1E72C00F7E7039FE7E70B9BBF
:102580000698D9191BF030FFC3E7C04694630200D8
:10259000AC5B020068D80200F0B589B0049008680E
:1025A0000D0009F043FE0400686809F03FFE0700D3
:1025B000A04202D06868FFF7E9FC06A92868FFF787
:1025C000D5FD060007A96868FFF7D0FD069A0590BB
:1025D000B3180393049B3400022B19D9AB681E492E
:1025E0008B4206D0012138000091310002F068FDD5
:1025F0000400049B032B0BD0EB68174A934207D0CF
:102600000122310000923800069A02F059FD039031
:102610000025079BAB4212D1039B2000191B1EF023
:1026200076F9013045000120284309B0F0BD059935
:10263000200022F00CFE002808D101353400079A52
:10264000039BA6189E42F2D96D00ECE720001EF015
:1026500046F90600F2E7C0463CB0020010B50100A2
:1026600001481BF0B3FF10BD2F09020010B5010097
:1026700001481BF0ABFF10BD41090200F7B5060091
:10268000080001A9FFF772FD019B0500002B01D195
:102690001348FEBD134B04009E4207D10027019A48
:1026A000631B9A4211D8002F07D1F1E70E4B9E42CF
:1026B000F4D0019A631B9A4201D80C48E9E72078CC
:1026C000B04701340028F4D1E2E7207806F096FE06
:1026D000002803D02078B047071ED9D00134DEE7A8
:1026E000749B0200659400007D9400007C9B0200B6
:1026F00010B501000148FFF7C1FF10BDE5930000D0
:1027000010B501000148FFF7B9FF10BDFD930000AF
:1027100010B501000148FFF7B1FF10BD159400008E
:1027200010B501000148FFF7A9FF10BD6594000036
:1027300010B501000148FFF7A1FF10BD7D94000016
:10274000F0B585B006000C00170009F06FFD694672
:1027500005003000FFF70AFD0600042F23D1009882
:10276000A30715D1114B22689A4211D101AA210069
:10277000FEF7BEFF002802D10D4807F0DFFE0199E9
:10278000029A2800521A71181BF02EFE05B0F0BDF7
:10279000002301002200280009F008FF335C01201B
:1027A0005B001843F2E70020F0E7C046C05E02007D
:1027B000F7D3020070B51D008EB0002900D174E07F
:1027C00018683B4C03002340062B05D0830726D115
:1027D000384B02689A4222D10239012962D80AA9EB
:1027E000FFF7C4FC060028680440062C15D1C00879
:1027F00021F095FC0400002C04D10A99300011F05E
:102800007BFA040010200A9D21F00BF92A4B856009
:102810000360C66044600EB070BD4468EBE70129F8
:1028200040D80122104210D0441021000AA821F003
:1028300095FB0C9B002122001800019322F032FD31
:102840000AA91D48FFF722FCE5E703A91EF037FCA3
:10285000002805D0049A039917481BF0C5FDDAE754
:10286000286809F0E5FE1021002800D0411006A8D4
:1028700021F063FB0AA9286807F040F80400200053
:1028800007F09EF8002801D106A9DAE709F0B6FDA5
:10289000FF2802D9094807F05FFCC1B206A821F061
:1028A000ACFBECE7064807F01BFE0648B3E7C04662
:1028B000070080FF94630200BC5B0200C4D30200E7
:1028C000DDD30200AC5B020073B50400080001A96F
:1028D0001600FFF74BFC0500042E06D10300019AF9
:1028E000074920001BF095FF73BD064920001BF02F
:1028F000CFFE0123019A29002000FFF763FBF3E7D5
:1029000054D80200C12F03000A001B4B73B51A40B4
:1029100005000C000340062B0CD1062A04D1441AF2
:1029200060426041C0B212E0C00821F0F8FB06002E
:10293000606805E04668062AFAD1C80821F0EFFB76
:10294000002E05D0002803D0B04201D0002076BD73
:1029500069462800FFF70AFC01A905002000FFF7DF
:1029600005FC009A019B01009A42EFD1280022F059
:102970006EFC44426041D5E7070080FF084B07B575
:102980000340062B08D0830704D10268054B9269E7
:102990009A4201D0FFF7FAFA01A9FFF7E7FB0EBD53
:1029A000070080FF452F00000A4B13B503400C00C1
:1029B000062B08D0830704D10268074B92699A421C
:1029C00001D0FFF7E3FA01A9FFF7D0FB019B2360D9
:1029D00016BDC046070080FF452F0000F0B59BB034
:1029E0000B900591089210210EAA12A8099311F0DC
:1029F00017F8059B089A934208D30B9A12AB13CB96
:102A000013C21B6813600B981BB0F0BD059B1978AF
:102A10005D1C7D290ED1089BAB4208D9059B5978D6
:102A20007D2904D112A821F0E8FA059507E0BC48F9
:102A300007F092FB7B2906D012A821F0DEFA059B55
:102A400001330593D5E7089BAB4216D9059B59780E
:102A50007B29E7D02B007D2903D0212901D03A29F9
:102A60000DD100252E001A78212A11D000220692BD
:102A70001AE0089A01339A4201D1AA48D8E71A7895
:102A80007D2A03D0212A01D03A2AF2D11E00EAE79A
:102A900008995A1C91421CD95A780692723A012A16
:102AA00017D802339942E8D900211A7805913A2AB9
:102AB0001FD15A1C5B7805927D2B1DD1089B059A6E
:102AC0009342DAD90027059B1B787D2B17D09648B7
:102AD000AEE79648ACE719787B2905D1013201337E
:102AE00008998B42F7D3C8E77D29F8D1013A002A2B
:102AF000F5D1059F0593E6E7059B0122F0E7002D40
:102B000048D000232878169306F084FC00283DD096
:102B1000099B1B680793002B01DD854888E716AAEF
:102B2000310028001BF029FC209A169B013A040072
:102B30009A4203D87F4980481DF061FF219A0133F2
:102B40009B009D580122099B52421A60B44231D227
:102B50007A4807F0F3FC0134B44204D223782E2BD8
:102B600001D05B2BF7D1611B01222800FFF7C4FACB
:102B700000220500010022980FF084FB002807D1F5
:102B800029006F481FF0A0FB01F05CF92C00E3E77F
:102B90004568DBE7099B1B68002B01DA694847E7BA
:102BA000209A013A9342C5D2013321999A0055588F
:102BB000099A1360002F00D0A6E1069B3C00002B71
:102BC00004D0069C733C631E9C41E4B210AA102101
:102BD00016A810F025FF2900220010A809F03EFBDE
:102BE00016A95948FFF752FA01235B4205000D93DD
:102BF0001093002F00D18FE002F0DEFE229B059A99
:102C00000293219B39000193209B16A80093099BF6
:102C1000FFF7E4FE16A821F0DEF90026179B04005A
:102C2000C3180A9303780693B34208D0474F19009C
:102C3000380022F045FBB04200D16EE10134237828
:102C40002B2B4ED000272D2B02D0202B01D1043767
:102C500001342378232B02D1133B1F430134237803
:102C6000302B07D1069B002B01D13D330693002E5C
:102C700000D130360DAA0A9920001BF07EFB0378A4
:102C800007902C2B04D10C3B1F4303000133079307
:102C9000079B1B782E2B06D1079810AA01300A99A2
:102CA0001BF06BFB0790079B1C78002C1BD02100AE
:102CB000274822F005FB002803D0079B5B78002BF8
:102CC00011D02448B4E63100380022F0F9FA002887
:102CD00004D033000234069E0693B0E70690060047
:102CE000ADE70227B4E716A821F049F9069B002BAF
:102CF00008D12800FFF726F93C230693002801D0CD
:102D000002330693002E00D1203606231F4229D01D
:102D1000732C23D110488BE63C003E00E9E7C04607
:102D200022D5020063D502007BD502004AD50200FD
:102D30009FD50200E9D502000C85020002D60200F0
:102D4000488502001FD602009463020069D6020083
:102D50006ED602007ED6020097D60200632C01D107
:102D6000714865E6069B3D2B1FD05E2B1FD03C2B88
:102D700001D13B3B1F432800FFF7C8F800282DD0A6
:102D8000632C50D026D8472C13D8452C26D2002CA3
:102D900040D0252C22D028001EF07AF92200030012
:102DA000624963480CF092FEEEE64023E2E780239E
:102DB000E0E7582C53D0622CEDD1002303930D9BF8
:102DC0000222029361230196009729000EA800F0C9
:102DD00093FD34E6672C17D8652C1BD32800FFF72A
:102DE000B1F800286CD0002C56D06E2C54D0472C53
:102DF0003FD8452C41D2252C50D028001EF048F950
:102E0000220003004B49CCE76F2C1AD0782C26D037
:102E10006E2CC0D1002303930D9B01960293009763
:102E200061230A22D1E7280009F0E8FA0D9B16A9D0
:102E30000870012201933B0000960EA800F000FDEF
:102E4000FDE5FB0602D580239B001F43002303936F
:102E50000D9B01960293009761230822B5E700229B
:102E6000230003920D9A173B0292019600971022BD
:102E7000ABE72300653B022BBFD8280009F022FBFB
:102E8000109B220002930D9B011C01933B000096B6
:102E90000EA81BF079FCD2E56724EEE72800802419
:102EA00009F010FB244915F0EDFB109B6400029320
:102EB0000D9B3C430193011C009623006622E7E72B
:102EC000069B3D2B01D11D48B2E5002C01D0732C8F
:102ED00013D116A92800FFF767FD109B0100169A71
:102EE000002B00DA1092109B9A4200D916930D9B8A
:102EF00000960193169A3B009FE728001EF0C8F841
:102F0000220003000E494CE7069B002B00D058E638
:102F100001235B420D9310936EE66678002E00D07D
:102F2000D1E606968BE6C046C3D60200F6D602006E
:102F30009088020027D702000000C8425BD7020039
:102F400090D70200F0B5A1B005000C000D920A2840
:102F500000D0E4E10DAB0F930123073D10930592E0
:102F600015403CD11368BF4A934206D10FAA10A95D
:102F700005981DF073FB059502E0BB4A9342FAD118
:102F8000109B11A907930F9B20000893FFF7EEF801
:102F9000002309900A93A30705D1B44A23689B1A1A
:102FA0005A425A410A9214AA102118A810F038FD6A
:102FB000119A00279446099B099C63440493049B3F
:102FC000A3420FD8079BAA48BB4229D10A9BA94814
:102FD000002B00D0A54818A9FFF758F8BAE1002344
:102FE0000593CDE72178252904D018A821F005F80C
:102FF0000134E4E7049B661CB34202D89E4807F004
:10300000ABF86178252904D118A820F0F6FF340028
:10301000EEE70025282915D1059BAB4202D1974840
:1030200007F05EFAA01C06003378292B23D1311A51
:103030000122FFF761F80100059805F0B1FD0127B5
:1030400005000136002334004022002630210420F0
:103050000B9320330693049BA34213D800231293AF
:10306000049BA34231D923782A2B70D1079BBB4202
:1030700021D88348D4E7049BB34201D88148BEE7F6
:103080000136D1E723782D2B03D12C3B1E4301348D
:10309000E1E72B2B01D1293BF8E7202B01D1064397
:1030A000F5E7232B04D0302BD8D116430691EEE759
:1030B00010230B93EBE77B1C0C93089BBF00F85885
:1030C00009F09CF90C9F1290013401235B42139389
:1030D000049BA34292D923782E2B17D1049B601C0A
:1030E00083428BD963782A2B38D1079BBB42C0D946
:1030F0007B1C0C93089BBF00F85809F07FF90C9FCC
:1031000013900234049BA34200D877E7002D06D128
:10311000079BBB42ADD9089ABB009D580137227866
:10312000672A45D8652A00D3B8E0582A5DD01DD853
:103130001300453B022B00D8B0E0099B5249E41A2A
:103140000094130051480CF0C1FC00F07BFE2000FD
:1031500012AA04991BF011F90400B6E7002313AA80
:10316000049913931BF009F90400CBE7632A49D0B3
:10317000642AE2D103222B001340022B0AD1444BD4
:103180002B40062B06D0FF23DB05E81890430FF0F9
:1031900041FB0500139B0A220393129B00960293A6
:1031A000069B01936123290014A800F0A5FB1FE7EB
:1031B000732A16D8722A00D380E0692ADAD06F2ADF
:1031C000BBD10B9B002B02D084239B001E43139B7F
:1031D00000960393129B08220293069B019361239E
:1031E000E1E7752AC6D0782AA7D11300139A173BB6
:1031F0000392129A0292069A01920B9A1643009633
:103200001022D0E7224B2B40062B05D0AB0716D15E
:10321000184B2A689A4212D11CA92800FFF7C4FB58
:103220001C9A0100012A01D01A48F9E6129B019369
:1032300020230093330014A800F002FBD8E62800F6
:10324000FEF764FE00280BD0280009F0D7F8129B87
:103250001CA9087001932023012200933300EAE7A0
:103260000D48DDE658730200E8750200BC5B020001
:10327000EDD402009463020028D402003AD4020084
:1032800067D4020051D40200B8D402009088020032
:10329000070080FF8ED40200A7D40200280009F0A6
:1032A00011F9139B22780293129B011C0193069B38
:1032B00014A8009333001BF067FA99E616AA1021B0
:1032C0001CA810F0ADFB23781A00723A51424A4113
:1032D000D2B2722B09D00A9B002B06D0AB0704D1C7
:1032E000594B2968994200D10422290016A808F0F8
:1032F000B5FF139A1D9B002A00DA1393139A9A4282
:1033000000D91A00129B1E990193202314A8009340
:10331000330000F095FA1CA820F031FE68E60800A2
:1033200008F084FF16A907002000FEF71FFF059094
:10333000072D22D118A90D9809F09EF8030000204E
:10334000834207D01899814206DC404B40489F4297
:1033500000D10E2021B0F0BD169B1CA8594320F0CF
:10336000FDFD1E9B0121049300930598189B169A5E
:103370001AF083FF1CA938002EE60D9808F056FFBE
:10338000B8420FD11CA90D98FEF7F0FE1C9E0490C8
:103390001D2D17D8192D4ED2052D21D0122D1FD03D
:1033A0000020D7E7284B0D989F4209D101221CA984
:1033B0001DF085FE0028CDD01C9B1D9E0493E7E7E1
:1033C000FEF7E4FD1F2DEBD10123049A009316991B
:1033D000330005981AF0E9FF00282AD01D48B9E704
:1033E000169B002B07D10D9808F020FFB84202D1A0
:1033F0000D9C2000AEE7002EFBD0169B1CA8F118F8
:1034000020F0ACFD1E9B169A05991800069321F03A
:103410002DFF169A1E9B94460593634418003200B4
:10342000049921F023FF1CA93800FEF72FFE0400A9
:10343000DFE709488EE70096049B169A0599280055
:103440001AF051FFC8E7C046BC5B0200946302005B
:10345000AC5B02007C9B0200749B0200F0B505008F
:1034600087B008680C0008F0E1FE0090012D28D913
:103470006668022D26D0A06808F0C0FF0500002174
:10348000080020F01EFF04A901902068FEF76EFEE0
:10349000049B0400C7183E4B9E4241D1BC422AD235
:1034A000207805F09FFF00280FD1002D0FD12100BB
:1034B0003A1B00981AF098FF0100019811F0E0F90A
:1034C00019E0334E01256D42D9E70134E6E72600C5
:1034D000307805F087FF002802D10136B742F7D8CF
:1034E0002100321B00981AF07FFF0100019811F0B3
:1034F000C7F9B74209D8019807B0F0BD0136B74205
:1035000003D1002DF7DD013D06E0307805F06AFFBC
:103510000028F3D1002DF6DCBE42ECD23400C4E723
:10352000300008F083FE009B984202D03000FEF786
:103530002DFD05A93000FFF737FA059B0390002BFE
:1035400013D1144806F008FE3E002100321B0098FB
:103550001AF04AFF0100019811F092F9BE42CAD256
:10356000059BF418002D00DD013D2600059B02930C
:10357000002DE9D0029BF3189F42E5D3029A0399EC
:10358000300021F064FE0028DFD00136F0E7C046AD
:103590003CB00200C2D70200F0B507008BB00D00AE
:1035A000022807D829003800FFF758FF0500280037
:1035B0000BB0F0BD086808F039FE08A9049028682F
:1035C0006E68FEF7D3FD0190A86808F017FF041E8F
:1035D000E8DB431C18000021059320F072FE2F4BFE
:1035E00005009E4202D12E4806F0A8FF09A930002E
:1035F000FFF7DAF9099B0690002B02D1294806F063
:10360000ABFD089A019B944663440293A300039385
:10361000099F029BDE1B002C0BD0019BB34208D8F4
:103620003A000699300021F012FE002821D0013E18
:10363000F1E7EB68A6009F19019A029B01999A1A7B
:1036400004981AF0D1FE3860002CB0D0059B1C1BEA
:10365000EB68A70099193A00180021F010FE6B687A
:1036600000211A1BEB689200D81921F01BFEAC60F8
:103670009DE7039AEB68944663440793029BF11914
:103680009A1BD21B04981AF0AFFE079B013C1860EE
:10369000039B0296043B0393BAE7C0463CB002008A
:1036A00059D80200C2D7020070B50C008AB00500DC
:1036B00004A920681600FEF759FD00230593049B1A
:1036C0000100C218029605AB06A801940095FFF709
:1036D00085F906A90248FEF7D9FC0AB070BDC046BC
:1036E00094630200F0B5304B8FB007AE0138009301
:1036F00004310723019601F0D3FB0023B0682B4F60
:103700000393B84203D008F079FEC3B20393706903
:103710001825B84202D01AF00AFD45B2B069192442
:10372000B84202D01AF003FD44B23069B8420DD05D
:1037300005AA022108F026FF059B18681AF0F7FC7D
:10374000059B45B258681AF0F2FC44B201210E0004
:10375000A022AE40A140164BD205D75815483E4393
:103760000590D650D6588E43D650134A0321855023
:10377000C450280021F00EFC2000032121F00AFC97
:10378000079905A813F03AFC0A9B039A089905A823
:1037900013F044FC0799094814F0A4F9084B0130D0
:1037A000188002480FB0F0BD3C5E02003CB0020041
:1037B00014050000002000400C050000C832000085
:1037C0005C2C002010B501F025F9034B002800D136
:1037D000024B180010BDC0467C9B0200749B020087
:1037E000F7B50D0014001E00002A07D001F012F9F1
:1037F000002805D10B230124336064422000FEBD64
:103800002E002F1901F012F9741C3070BC4213D035
:103810000A4B1B8800931BF0F9F8019001F0FAF8AD
:1038200026000028EED11BF0F1F8019BC01A009B86
:103830008342F3D8641BE1E73C00FBE75C2C0020EB
:10384000F0B587B0039205910D9A03990500521ABD
:103850000CA9097820200C00844339D030293BD0B2
:103860000CA902910121802401911C4036D0D40F73
:10387000A4186410171B002C37DD2600019B04934D
:10388000B34200DD04966B68049A02992868984751
:10389000049BF61A002EF1DC039B002B06D01A00C5
:1038A00005996B6828689847039BE418002F0CDD86
:1038B000E419019EBE4200DD3E00320002992868F4
:1038C0006B689847BF1B002FF3DC200007B0F0BDEA
:1038D000074902911021C6E70649FAE701271F4070
:1038E00001D11400C7E71700D6E70024D4E7C0468B
:1038F00081D8020092D80200F0B593B01C0018AB3A
:1039000020CB05901B780F0016000793CB070BD434
:103910008B0703D1854B0A689A4205D0380008F01E
:103920006DFD01274000074381231D4209D1079BFC
:10393000302B06D11A9B1B9A934200DA1A9200236D
:103940001B9338001EF02EFC0AAA1300002806DB89
:10395000AB070FD52B231370123B04AA9B18E1B2BF
:10396000EA0615D5022E0CD130221A704A1C5A7064
:1039700002330DE013006A07F1D520221A701923D3
:10398000EBE7082E3BD130221A70AA0534D401335C
:1039900000220AA81A701B1A2C200693AB06DB170C
:1039A00018400EAB0B9310230C931B9B0D92012B15
:1039B00001DD40231D43402404ABDA752C40039005
:1039C000029123D03B00019200960DAA0CA90BA8EE
:1039D0000EF0D4FF037807002D2B00D08EE004AA50
:1039E000D3750D9B1B9A013B01370D93012A00DD16
:1039F00097E00026340035E00A000E32B7E7102EBB
:103A0000C6D130221A700A001732B0E70AAB019310
:103A100000963B000DAA0CA90BA80EF0AFFF1B9B54
:103A200007002600012B1DDD0D9B1B9C9C4200DA2C
:103A30001C001A9BA3425EDD01261C1B2E4001D0F8
:103A40002600002401239D432F330793002C09D027
:103A5000103B0093002301941A0035490598FFF7A5
:103A6000EFFE04006B0621D5172104ABC9180B78B3
:103A7000002B0AD000230122009301920598FFF742
:103A8000DFFE1A9B2418013B1A93069B002B0DD0D6
:103A9000012301930023069A00930AA90598FFF7D2
:103AA000CFFE1A9B069A24189B1A1A931B9B012B74
:103AB00001DC1A9B1B931B9B0D9A0193079B3900FA
:103AC000009305982B00FFF7BBFE2418002E09D0A9
:103AD00020230093002301961A0015490598FFF74B
:103AE000AFFE24180B980EAB984201D01FF0C8FF10
:103AF000200013B0F0BD00263400A3E71B9B012B70
:103B000000DC76E70D9B1B9C9C4200DA1C0017230F
:103B100004AA9B181B78002B00D00134069BE418E4
:103B200087E71B9C9C42F8DA1C00F6E7D49D020054
:103B3000A7BD0200F0B50600140000278DB00D00EF
:103B40002B78002B15D1A94217D30B78002B00D16D
:103B500048E14B1C04932023002530220821042037
:103B60000893049B1B78002B11D10693013B07930C
:103B70005FE0252BE7D00135E2E76B1A04931A00CA
:103B8000306873689847049B2900FF18DDE72D2BE8
:103B900005D12C3B1D43049B01330493E1E72B2B00
:103BA00001D1293BF6E7202B01D10543F3E7212B77
:103BB00001D10D43EFE7302B2CD110331D43089278
:103BC000E9E7069A4A43D318303B0693049B013336
:103BD0000493049B1B781A00303A092AF1D92E2B42
:103BE00047D1049B5B782A2B18D0049B0A21013310
:103BF000049300230793049B1B781A00303A092A88
:103C000017D8079A4A43D318303B0793049B0133D4
:103C10000493F0E700230A210693DAE7049B0233BA
:103C20000493236804340793DB43079ADB171A4095
:103C30000792049B1B786C3B5A425341049AD31859
:103C400004931B780593002B00D1CBE0642B00D1AB
:103C5000A1E022D8502B29D00ED8453B022B00D80A
:103C6000A9E00122049930687368984701370994E4
:103C700052E001235B427AE7059B622B3CD057D888
:103C8000582BEED1231D0993069B01950393089BA6
:103C9000029341230093313B7BE0059B712B53D072
:103CA0000FD8672B00D886E0702BDAD1231D09933B
:103CB000069B01950393089B029361230093513B5C
:103CC00067E0059B752B5AD0782BEFD0732BC8D1AA
:103CD000231D24680993002C49D0079B013303D18D
:103CE000200021F005FB0790069B079A0193089B93
:103CF000210000932B000BE0231D09932368002B68
:103D00000ED0069B04220193089B384900932B0098
:103D10003000FFF795FD3F180499099C01310EE72B
:103D2000069B05220193089B314900932B00EFE786
:103D3000231D099323680BA90B70069B0122019395
:103D4000089B00932B00E3E7231D0BA92068099330
:103D500020F0F4F9079B0100013301D10B9B07937D
:103D6000069B079A0193089B00932B00D0E7069BC4
:103D700006220193089B1F4900932B00C8E7231DCF
:103D80000993069B01950393089B0293612300937B
:103D9000573B00220AE0231D0993069B012203934F
:103DA000089B0195029361230093573B21683000E3
:103DB0001AF07DFCAFE7072307349C4323002068FB
:103DC00061680833099315F0FBFF079B011C029300
:103DD000069B059A0193089B300000932B001AF074
:103DE000D3FC98E738000DB0F0BDC0466FD8020094
:103DF00074D802007AD80200C46005614661876108
:103E00004146C1614946016251464162594681625B
:103E10006946C1627146816000490847253E00003D
:103E20000020C046024B9A680260986000207047EC
:103E3000E82C0020024B9A6812689A607047C046CE
:103E4000E82C00200E4A9368002B01D11EF072FA74
:103E5000196858609160181CC468056946698769CB
:103E6000C1698846016A8946416A8A46816A8B46E9
:103E7000C16A8D4681688E4601207047FEE7C046C4
:103E8000E82C002010B50400431C02D002480BF0BF
:103E90007BFE024B1C6010BD102D0020E02C00208A
:103EA000014B024A9A647047E82C0020102D002034
:103EB000F0B58BB0079310AB10CB009001911B783D
:103EC000062A12D8012A08D93F230B700B000133B0
:103ED0000193002301990B7001E0002AF9D1012020
:103EE0009042804140420BB0F0BD0099002929DA90
:103EF000019B01995F1C2D230B70802109068C46C4
:103F0000009B63440093019BFF210993009BC9051B
:103F100018000840884222D120234E21079AF81C1D
:103F20001A4013001143009A540212D149225A40F8
:103F30003A70462253407970BB700023FB70019B9E
:103F4000C01AD0E7019F002BDDD0390001370B707C
:103F5000D9E74124634039707B70B970EDE7002CDC
:103F600000DA06240199013A7D1A551B202207998F
:103F700011430291672940D1002C00D1CEE1002BE2
:103F800079D0A64A934200D9D4E0A549009813F00D
:103F900003FF431E98410023002630300393203353
:103FA000059004939F4B039A0099D05813F0EAFEB2
:103FB000002808D0049B039AF6189B4B0098D15810
:103FC00014F060FB0090049B5B100493039B04338C
:103FD0000393182BE6D115330393009A8F4B93422A
:103FE0005DD38F49009813F0D7FE002851D0002EE2
:103FF0007CD0FE239B05009351E0002BC1D1029B96
:10400000662B38D1631CAB4200DBAC1E029B651CE7
:10401000049300231E0003930593E343DB171C4026
:10402000049B652B00D0EEE0651C00230693069BE5
:104030009D424CDD009814F031FE7B1C0893030078
:1040400030333B70059A069B934205D1002C03D078
:10405000BB1C08932E237B7014F040FE011C0098BB
:1040600014F042FC714914F00DFB069B00900133E3
:104070000693089FDBE7631DAB4200DBAC1F029B8E
:10408000652B00D1AFE000250493039505952E0024
:10409000C3E70098654914F0F5FA01360090029BD9
:1040A000662B03D0672B39D1042E37DC059B3B7080
:1040B000029B672B01D1731EE418631CAB4200DB2B
:1040C000AC1E002C15D16623013703940493029B88
:1040D000662B00D0B0E0012E00DDDDE054490098F1
:1040E00013F05AFE002800D0ACE0D5E02B23039358
:1040F0007FE72E23250030227B70BB1C013E1F0072
:10410000002E76D0002D05D1039501235B42059347
:1041100067334DE01A70013D0133EFE76B1FA34297
:104120006CDC029A672A66D01300AC1F002504934A
:10413000059572E7002300260393203304933A4B3E
:10414000039A0099D05813F013FE002808D0049B5E
:10415000039AF618334B0098D15814F093FA009054
:10416000049B5B100493039B04330393182BE6D149
:104170002E49009813F010FE002805D000982D4914
:1041800014F080FA01360090029B662B12D1AE42E9
:1041900014DAA3190133AB4204DBAC1B023C631CF1
:1041A00000D10024002335190393013505966633A9
:1041B000049332E7029B652B00D0B1E06B1FA34252
:1041C00000DCAC1F2B230025039305953A33EFE762
:1041D000231DAB4200DB6C1F029BA64200DBA3E069
:1041E000731CE41ADEE7029B002504932B23039340
:1041F0004CE7039689E71C00029B97E70025029B8A
:10420000059504930CE7049B672B00D00DE7251E52
:1042100000D00AE701252C0007E7C046FFFF7F3FDB
:10422000F8FF7F3F905E0200A85E02000000204180
:104230000000A040CDCCCC3D3E49009813F0ACFD31
:10424000002824D030217B1E1A782E2A4FD010004F
:104250003038092842D901330193019B1B78302B58
:1042600015D1019A52782E2A45D10499662942D057
:1042700001994B70039B0A702D2B3AD1013E002E01
:104280003BD03B00019A9A423AD331231370029BF0
:10429000672B01D1002C39D1039B002B19D0202290
:1042A000079B0A2113401A00452313433B70039BCD
:1042B00030007B7013F016FC0A2113F0F9FC30314A
:1042C000B97030000A2113F0F3FC3C1D3031F97055
:1042D000270000233B70099BF81A04E6392A02D014
:1042E00001321A70B8E7019A19709342B5D0013BB8
:1042F000AAE70136C5E70137C3E72B230393C0E7DD
:104300005A1E117819701300BCE71F007B1E1A7823
:10431000302AFAD02E2ABFD11F00BDE701242EE695
:10432000029B672B00D153E704932B2300250393B3
:10433000FEE6C0460000A04070B504000D00104924
:104340001AF0A6F969680122200007F087FF0D4ED8
:10435000200031001AF09CF9A9680122200007F022
:104360007DFF310020001AF093F9E9680122200056
:1043700007F074FF044920001AF08AF970BDC046A6
:10438000A3D80200CDBE02001819030070B50600C4
:1043900010200D0014001FF044FB034B46608560A5
:1043A0000360C46070BDC046C05E0200F8B507007F
:1043B00008680C0019F0BBFE0500606808F05CF9A5
:1043C0000600022F0AD9A06808F018F80200310090
:1043D00028001AF031FA1DF008FFF8BD004AF6E790
:1043E00040420F00044B054A98331B6804481A608A
:1043F000044A9A807047C046E82C002078000400E8
:104400003CB0020004040000084A10B513009833C1
:104410001B689979002908D0916C0029F9D00021F6
:1044200099711B69587904F005F910BDE82C00203A
:1044300013B5084C9834236818881DF0D6FE2368FD
:10444000009058881DF0D1FE69460190022003F0CB
:1044500007FF16BDE82C002010B50D4C002803D036
:104460000868FCF7CBFB04000A49200000F0B0FF0D
:104470006079002104F0DEF8200000F093FF0022B4
:10448000054B064898331B681A619A7110BDC046E7
:1044900000580200C0640200E82C00203CB002007A
:1044A0001FB50C4B02AC00930194022300F0F8FC02
:1044B000029A002A03D0084B98331B685A8062681E
:1044C000002A03D0044B98331B681A80034804B0B9
:1044D00010BDC04648600200E82C00203CB002003D
:1044E000F0B5254B89B004AC00930194042300F08F
:1044F000D7FC224F224A3B0098331B6804989A80CD
:10450000204B0340062B06D0830730D102681E4B98
:1045100092699A422BD10123039402930025983784
:104520003B68186900F03EFF3B6860681D61FCF75E
:1045300065FB1649060000F04BFF3B68144A9D716D
:10454000126802999A60227B9981DA71DD81039A5F
:10455000012900D112685A6101221E619A71237AE1
:10456000002B01D0FFF750FF0A4809B0F0BD03AAA5
:1045700002A907F0E5FFD1E708600200E82C00205F
:1045800004040000070080FF452F0000C064020003
:10459000E42C00203CB00200F0B5274B89B004ADFC
:1045A00001950093042300F07BFC6B68A868049ECF
:1045B0000393FCF723FB214F040098373B681869ED
:1045C00000F0F0FE00223B681D491A61200000F057
:1045D000FFFE607980212D7B04F02CF8002E1CD189
:1045E000607904F0A7F8039B002B13DB0022134B28
:1045F000144998331B6803989A710968DA71411855
:10460000DA605A61023299601C619A71002D01D002
:10461000FFF7FAFE0C4809B0F0BD31000B4813F06B
:10462000D7F903F0E3FF0028DDD0607904F082F8C9
:10463000074805F091FDC04628600200E82C0020E4
:10464000C0640200E42C00203CB0020040420F0095
:10465000AAD8020010B518201FF0E3F9064B9833D2
:104660001860064B0360064B83800023837103614F
:104670004361044810BDC046E82C002078000400C7
:10468000040400003CB00200F0B56D4C87B0260079
:1046900098363368002B40D09A79002A3DD0694D76
:1046A00099682A68914238D89A79022A0BD11B69F5
:1046B0000021587903F0BEFF2B6832680A339360FB
:1046C0000123937129E09A79012A26D19A89D989FF
:1046D000914204D3DD79002D19D00021D981586988
:1046E000012A02D0DA8992001058574A904216D116
:1046F0001B6900215879983403F09CFF24685348C3
:10470000218813F0EFF90123A060A37105E09D71EA
:10471000186900F047FE33681D6107B0F0BD05A9B8
:10472000FEF742F99834236801901B69802158797B
:104730000293059E03F07EFF019B24681F781F23D0
:10474000218842481F4013F0CDF9618813F0CAF95F
:104750007D1EEDB20390012E5AD9019B5B78232B6D
:104760004DD0622B50D1002D4BD0023FFDB26A1EBE
:1047700053425A415242022E4ED001210223019847
:10478000C05C3A2803D00F273840207101332079CC
:1047900084469E420ED90198C05C3A280AD1581C22
:1047A000864207D9019F0233385C0F2738409E426A
:1047B00035D86071092D3DD86346043B9A1852B232
:1047C0006F00234B002900D1224BD85B002A2EDB3F
:1047D000104103F00BFF1A4B039998331A68537971
:1047E00059430B0017490A3B09680A2B00DA0A23D0
:1047F0005B189360D3890133D381022361E70022E0
:10480000B9E72A000625B6E7002101230A00B6E72A
:10481000002101230A00BAE733000121B7E70A2685
:104820007043019E6071F65C3E408019C1E75242C0
:104830009040CEE7029B0021587903F0FBFECAE7C7
:10484000E82C0020E42C00203CB0020060EA0000CC
:1048500076B8020068B8020070B506000D000028A6
:1048600014DD002907DD154813F03CF90124B0429E
:1048700009DB002407E00100C020000613F032F934
:104880000124A842F5DDE4B2200070BD002907DD57
:10489000C020000613F026F90124B042F3DCE8E75B
:1048A0000024A042F0D00100044813F01BF90123BA
:1048B000A84200DC231CDCB2E6E7C046FFFFFF3F56
:1048C000C3790248002B00D1014870477C9B02004D
:1048D000749B020010B506F0CFF9014810BDC04628
:1048E0003CB0020010B5086806F0C6F9004810BDDB
:1048F0003CB0020073B50D00022836D1012601A993
:104900006868FEF751F876423400019BC318834271
:1049100012D101A92868FEF747F873427341624239
:104920006241DBB2D2B2019906F0EAFA002820D146
:10493000104911481CF063F80278722A01D0772AD6
:1049400006D1611C0ED1723A544254410130DEE767
:10495000622A01D0742A05D1711C03D1743A5642DF
:104960005641F3E7054805F0F7FB0126764234008F
:10497000CFE776BDC5D80200B0860200B8D80200E5
:1049800010B50400034B036040301FF0ACFD200065
:1049900010BDC0469862020010B50F4C200020F0F8
:1049A000E2F9002808D0200020F049F90B4B1B68E1
:1049B000984202D1FFF774FA10BD3F21084A1388CC
:1049C00001330B40074909888B42F5D01188064C0A
:1049D00013806054F0E7C04638010020E02C00202E
:1049E0005E2C0020602C0020652C0020002210B5D9
:1049F000044B05491A80054B05481A8020F0B8F988
:104A000010BDC0465E2C002099490000602C00209B
:104A100038010020034B1888034B1B88C01A431E23
:104A200098417047602C00205E2C0020084A094BFA
:104A300010881988884201D130BFF9E713880649E8
:104A4000C85C3F21138801330B4013807047C04678
:104A5000602C00205E2C0020652C002070B5040026
:104A60004518AC4205D02178024820F0ECF801341A
:104A7000F7E770BD3801002070B504004518AC425E
:104A80000DD02378064E0A2B03D10D21300020F0E3
:104A9000DAF82178300020F0D6F80134EFE770BD65
:104AA0003801002070B504000825002C08D0210032
:104AB000082C00D929000348641AFFF7CFFFF4E758
:104AC00070BDC046DDD8020070B5050004000826A0
:104AD000002C08D02100082C00D931000448641AA9
:104AE000FFF7BCFFF4E72800FFF7DCFF70BDC0460E
:104AF000D4D8020010B5010001481FF069FC10BDB8
:104B000020000020142313B5064C0093192218210D
:104B1000200011F03DFE044A0449200020F04EFB25
:104B200013BDC0463801002000000020814900006C
:104B300010B50C001DF096FB631E184207D0020052
:104B40002300034903480AF0C1FFFFF77BF910BDBA
:104B5000E6D802009088020010B54A680249D200E7
:104B600019F057FE10BDC0460ED9020070B50B00FB
:104B700006001400101E0FD071681800042A0ED110
:104B8000FFF7D6FF7368012B03D0022B05D0006816
:104B900000E000781DF029FB70BD0088FAE7FFF700
:104BA000C7FF0500200007F055FC726803000548A8
:104BB000012A03D0022A03D02B60EDE72B70EBE72C
:104BC0002B80E9E73CB002008022044B52001A60BF
:104BD0000123034A1360034A1360704700E100E0B9
:104BE0000C8C0040008000408022054B5200DA67A8
:104BF000044BFF3A5A600022034B1A607047C046CC
:104C000004E100E0008000400C8C004070B50025FD
:104C100001261E4B1E4C1D601E4B18601E4BE6509D
:104C2000C046FFF7E1FF1D4B1D4AE660E25002223D
:104C30001C4BFF20E5500433E25008339218E25039
:104C4000C12380229B001203E250053BFF3BE5504D
:104C5000C2244022144BA400195981430A438021E5
:104C60001A510C341A5909061202120A0A431A512F
:104C7000C0220434195981430A431A518022120474
:104C80001A60802252041A6070BDC046E42C0020D5
:104C900000800040A8010020FC0F00004C0500002F
:104CA000701700000405000000E100E070B51F4C23
:104CB0001F4D636C002B0AD0002363641D4B1B68DF
:104CC0009847A823DB00EA5800018018E850A36C3D
:104CD000002B09D00023A364164B5B689847164B42
:104CE0000001EA588018E850E36C002B0AD000233A
:104CF000E364104B9B689847A923DB00EA58000146
:104D00008018E850236D002B0ED000230B4A23653A
:104D1000AB580B495B18AB500A4A13680633136053
:104D20008022094B12045A6070BDC046FC800040CE
:104D30000080004008000020440500004C050000F1
:104D400070170000E42C0020FCE100E0F7B50191B1
:104D5000032823D8134B8000C758C223124D9B0051
:104D6000EF50012344192364A8230F210F4EDB00C9
:104D70009C46E358AE59921BD218D3170B409A1891
:104D800001990B4B1211C150C1239B00EF50634698
:104D90000020013212019619E650FEBD012040426A
:104DA000FBE7C046F4620200008000404C050000B2
:104DB0000800002003280BD8074B8000C158C223ED
:104DC000064A9B00D150064B064AC250002070474D
:104DD00001204042FBE7C046F46202000080004030
:104DE0000800002015EA010010B5024B1B68984727
:104DF00010BDC046A801002010B50024054AA1003E
:104E00008B58002B02D00020885098470134042C86
:104E1000F4D110BD98010020074A89008B58002B5F
:104E200006D1885080211800044A49045160704717
:104E300001204042FBE7C04698010020FCE100E071
:104E400010B51C0002AB1B78002904D0002B02D146
:104E50000E4805F045FBA24207D1824214D0030060
:104E60000B490C480AF032FE06E0824206D9121ABB
:104E7000094908480AF02AFEFEF7E4FF844203D2FB
:104E8000030022000549ECE710BDC0461ED9020010
:104E900032BF02001888020047D9020079D9020007
:104EA000F0B50024170087B00C9D03900491059382
:104EB00002940194059B9C4206D1019B039A934264
:104EC00040D2254805F00CFB039B9C4213D26B8813
:104ED0009B05F6D4019B049A01330193A300D0589B
:104EE000FF226B88A6001340012B24D107F0C4FBDE
:104EF0000D9B985517E0062329880022C900194305
:104F000038000DF0BFF9002810D16B88DB0506D5FD
:104F10002A88124912480AF0D9FDFEF793FF0D9A2C
:104F20006968A300D15001340835C3E7029B40688B
:104F300001330293D4E7022B01D107F05FFA0D9BF6
:104F40009851F0E73B68029ADB08934201D9054883
:104F5000B8E707B0F0BDC046BFD90200A8D902002B
:104F600018880200E0D90200044B88600B60044BF3
:104F700008004B600023CB607047C046B07202004F
:104F80007BEA010013B50400080001A9FDF7EEF863
:104F9000002C03D0012C07D0002004E0019B054821
:104FA000002B00D1044816BD01991BF0B0FC400055
:104FB0002043F8E77C9B0200749B0200F0B585B0AB
:104FC0000400080003A91500FDF7D0F80600002D25
:104FD00007D10300039A2F49200019F01AFC05B0ED
:104FE000F0BD039B0200C318002101200193019B27
:104FF000934206D82727002900D0053F3A002649CA
:105000001AE01378272B08D0223B5D426B41DBB2BC
:105010000132002BEBD02727F0E700230100F7E750
:1050200030001BF041FC050030001BF058FC06006E
:10503000AF4205D13A001949200019F0EAFB14E00B
:1050400017495C2D0ED02B00203B5E2B01D82A0087
:10505000D5E714490A2D05D013490D2D02D0092D8D
:105060000CD11249200019F013FB019BB342D7D891
:105070003A000949200019F0CCFBB0E7FF2D02D817
:105080002A000B49D8E70B4B2A000B499D42D3D984
:105090000A49D1E754D80200D3D70200D2D7020080
:1050A000D6D70200D9D70200DCD70200DFD7020032
:1050B000E2D70200FFFF000040DA020047DA0200F8
:1050C000F7B51E0008AB1D78294B0C00170098425D
:1050D00006D12B003200390007F068FA2018FEBD17
:1050E000F30715D576100196019BE219002B2ADAF9
:1050F00000213F260127501EA04219D2002900D0CE
:1051000001932000002DEAD11A491B481BF077FCBF
:1051100001A9300007F0B0F90028E5D130001BF0FC
:10512000B7FF1649020016480AF0D0FCFEF78AFEC7
:105130000278B243802A01D039000133421E002B8D
:10514000CDD01000D8E72000012600243F27904250
:1051500004D3002C00D001931000D3E7013BBED351
:10516000340001300178B9438029F0D10130F9E7EA
:10517000BC5B020026DA02000C850200FED90200A8
:1051800018880200F0B587B004000E00170007F081
:105190004DF802A905002000FCF7E8FF0400042FE9
:1051A0004ED1B30734D1274B32689A4230D105AB88
:1051B00004AA03A9300019F037FB059B224FBB421C
:1051C00004D0032B02D0214805F0B8F9039B260038
:1051D000BB4207D00122210000922800029AFFF76B
:1051E0006FFF0600029A049BA118BB4206D0012162
:1051F000280000912100FFF763FF01000E208E427E
:1052000004D88A1B2800310019F0EEF807B0F0BD71
:105210000023029A0093210033002800FFF750FF7B
:105220000278012153B2002B06DA4023012101E06C
:1052300001315B081342FBD10122FCF75DFFE5E77A
:105240000020E3E7C05E02003CB00200F7D302009A
:10525000F7B50600194D0C00280018F0BDF9310013
:10526000174818F03FF9174818F0B6F9164818F023
:10527000B3F9FF239B00E61821787F2901D0A642CD
:1052800006D1280018F0A8F9104818F0A5F9F7BDC4
:105290006278A37850290CD80D48475C0D48405CD3
:1052A000019300923B0002000B4818F01BF90434F4
:1052B000E2E70A4818F016F9F9E7C04601DB0200F8
:1052C0002EDB020036DB0200BFDA0200DDDA02006C
:1052D000A62403005524030057DB02007ADB0200FA
:1052E000F0B51D0087B006001A4817000C0018F032
:1052F00073F92900184818F0F5F8184818F06CF9F7
:10530000174818F069F9AD006519AC4204D111488D
:1053100018F062F907B0F0BD3878A27804902068E0
:1053200023780003400E0390E0789B06000902906A
:1053300020883178C004400E0190E0789B0E000771
:10534000000F00901209074818F0CCF80434013619
:105350000137DAE701DB02004EDA02007BDA0200F5
:10536000ADDA0200DFDA02000379044AD35C002BD5
:1053700000D183790248DB00C0187047A52C0020BB
:105380009064020010B50400FFF7EEFF2279036875
:10539000024903480AF09AFBFEF754FD9BDB02002A
:1053A00090880200002803D001210379014AD154DA
:1053B0007047C046A52C002010B5FFF7D5FF034B62
:1053C0004068C01A431E9841C0B210BD855300000A
:1053D00070B505000C00FFF7C7FF0023A04209D0FD
:1053E000436828009847044A2B79A41A034AE4101A
:1053F000D4540123180070BD90640200A52C002035
:10540000F0B5060000248BB0194B1A48E15800F0A3
:1054100049FF03AFE05104341C2CF5D114230024C0
:10542000734301930025AB00F95813481EF074FF35
:105430000135300019F0D2FA072DF4D1013DAB004F
:105440000D48F9581EF068FF300019F0C7FA013D09
:10545000F5D20134082C03D10FF028FF0BB0F0BDBA
:1054600001231C42DED1019819F0B8FADAE7C046F0
:1054700020650200F86602002000002010B5192007
:10548000FFF7BEFF004810BD3CB0020070B515002C
:10549000040019F054FB2A000249200019F00DFB0A
:1054A00070BDC04621EB010070B543790D000024AA
:1054B000032B06D9836A074C9200E41AC369D358B8
:1054C000E418032119F02CFB447024120570847039
:1054D00070BDC046FD7F0000F7B500230400617178
:1054E00083608371E260036101330F001500436143
:1054F000032906D80121836949429A00C0691FF037
:10550000D1FE0023A3622362AA8BEB8BD218002A60
:1055100000D10132384E2000310019F0CEFA2A8C29
:105520003100200019F0C9FAE3682000197D19F054
:10553000F0FAE3682000997D19F0EBFAE3682000A7
:10554000197E19F0E6FAE3682000997E19F0E1FA75
:10555000042F27D1636A226A31009A1A200019F0B9
:10556000ACFA3100EA89200019F0A7FA3100AA89C3
:10557000200019F0A2FA0026AB8CB34217DCFF2101
:10558000200019F0DCFA042F35D1EA8A2B8B023780
:10559000D31801930023019A9A422CD0AA8C00219F
:1055A000009223E00221200019F0A6FAD9E7AA6AA6
:1055B000F300D3181A78032A03D19978200019F040
:1055C000BEFA0136D8E70126A86ACA0082185078C8
:1055D00030420AD05088984207D15268D200606B9E
:1055E00099003A430A500133D5E70131009A8A42C3
:1055F000E9DC0222F2E7F7BDF9EA0100F7B5234B37
:105600000500A8331B680191022B0DD847698F4212
:105610000AD2836A0269CF1B9C1A3B00234304D140
:10562000AB6A2B61019B6B61F7BD062F01D90F2C73
:1056300018D900941F2C01D91F230093009B00262A
:105640009C4203D83E00032F00D9032601212800E5
:1056500019F052FA009A730113430370009BBF1BA9
:10566000E41ADAE70A4B3E009F4200D91E000221ED
:10567000280019F041FA702233091340F03A22430E
:105680001343037046700094E8E7C046E82C0020FE
:10569000FF07000070B50D000121040019F0CDFADC
:1056A0000E2D14D00F2D17D010210D2D10D0172135
:1056B000200019F044FA0322A36A04210333934320
:1056C000A362200019F02CFA044B036003E01121BF
:1056D000200019F034FA70BD1221F9E73C7F020076
:1056E000F8B5174F05000C0016000F40002A1AD11C
:1056F000110019F0A2FA23040FD53221280019F065
:105700001EFA3221280019F01AFA3221280019F065
:1057100016FA3221280019F012FA3A003521280031
:10572000FFF7C2FEF8BD3A004621FFF7BDFE7F231A
:10573000210A99433143C9B2280019F000FAF1E770
:10574000FF7FFFFF10B506F0BDFE044912F09AFF7F
:1057500012F04CFB19F042F9014810BD00007A44E8
:105760003CB0020010B506F049FE002801DD19F03A
:1057700035F9014810BDC0463CB0020010B5040028
:10578000080006F03BFE64102018034C4000204047
:105790000124204310BDC046FEFFFF7F10B506F078
:1057A0002DFE002801DD19F015F9014810BDC04695
:1057B0003CB0020010B519F029F9034B4000184025
:1057C0000123184310BDC046FEFFFF7F10B519F03E
:1057D00019F9034B400018400123184310BDC0467F
:1057E000FEFFFF7FF0B50D00002785B0110003908C
:1057F0001E002800104B02220097FFF721FBAB1C74
:105800009B00180002931EF00CF90400039B013D5D
:10581000036045603368029D8360083D0437BD42E4
:1058200002D1200005B0F0BD0021F05904F066F867
:10583000E3199860F2E7C046FFFF0000F8B50500E5
:1058400010200C001F0016001EF0EBF8054B446002
:105850008460A4190760C4606B60034B2860AB6070
:10586000F8BDC04657F401006DF4010070B50400A6
:1058700006F0DCFC00231549DA0052181568A54231
:1058800006D15168124818F003FF0123180070BDBB
:1058900001335F2BF0D10F4B9C420ED098420CD0BD
:1058A0000D4B9C420FD098420DD00C4A944202D02E
:1058B00000239042EAD1022300E00023084ADB00E3
:1058C000D3185968DEE70123F8E7C046E86702000D
:1058D000885E0200F08A020058630200F86002004D
:1058E000E06A020000B58BB00EF014FC684619F0B7
:1058F000C9FD054BD968091A89080EF0C7FB0EF0DF
:1059000021FC0BB000BDC046E82C002030B58DB0A6
:1059100005006846FEF770FA011E10D12A1D01200D
:105920001BF031F80122EB6804005B1001335B00CF
:105930001343EB60FEF77EFA20000DB030BD0198F6
:10594000054A0368934205D0044A00249342F3D0E9
:10595000FEF778FA0024EFE7648702000C85020066
:10596000044B0B6003684B60436808008B600123A5
:10597000CB607047F86A0200014BD8607047C046A0
:10598000E82C0020034B82B0D86801ABC01A02B0EB
:105990007047C046E82C0020014B18617047C04694
:1059A000E82C002010B54E2102481CF08DFCFEF7BB
:1059B00049FAC0462887020007B5054A01ABD168FD
:1059C0001269CB1A9A4201D8FFF7ECFF07BDC04617
:1059D000E82C0020FF230322DB05CB1810B59343EE
:1059E000042804D811F0E0FF06030F04160000217C
:1059F000080010BD0021181C12F0AAF90A4900285D
:105A0000F6D00A49F4E7181C13F048F901214000C8
:105A10000143EDE7802109065B18022193431943F6
:105A2000034BC918E4E7C0467C9B0200749B02004C
:105A300000008080FF23DB0510B50400C818032395
:105A40009843002386B001930633009310226133FC
:105A500002A9FEF72DFA02A9200018F019FE2E2146
:105A600002A81FF02DFC00280FD1652102A81FF00D
:105A700027FC002809D16E2102A81FF021FC002874
:105A800003D10349200018F003FE06B010BDC04644
:105A9000A51F030030B50C001100002285B01D00C9
:105AA000009201232000FFF7CBF9002C23D02868B7
:105AB000124B0340062B06D0032420420ED1104B7C
:105AC00002689A420AD103A9FCF76EFF00220399EB
:105AD0000092130004F06EFE05B030BD03002340B9
